{
  "_format": "hh-sol-artifact-1",
  "contractName": "BankDapp",
  "sourceName": "contracts/BankDapp.sol",
  "abi": [
    {
      "inputs": [],
      "stateMutability": "nonpayable",
      "type": "constructor"
    },
    {
      "inputs": [],
      "name": "bankName",
      "outputs": [
        {
          "internalType": "string",
          "name": "",
          "type": "string"
        }
      ],
      "stateMutability": "view",
      "type": "function"
    },
    {
      "inputs": [],
      "name": "bankOwner",
      "outputs": [
        {
          "internalType": "address",
          "name": "",
          "type": "address"
        }
      ],
      "stateMutability": "view",
      "type": "function"
    },
    {
      "inputs": [
        {
          "internalType": "string",
          "name": "_name",
          "type": "string"
        }
      ],
      "name": "changeBankName",
      "outputs": [],
      "stateMutability": "nonpayable",
      "type": "function"
    },
    {
      "inputs": [],
      "name": "checkCustomerBalance",
      "outputs": [
        {
          "internalType": "uint256",
          "name": "",
          "type": "uint256"
        }
      ],
      "stateMutability": "view",
      "type": "function"
    },
    {
      "inputs": [
        {
          "internalType": "address",
          "name": "",
          "type": "address"
        }
      ],
      "name": "customerBalance",
      "outputs": [
        {
          "internalType": "uint256",
          "name": "",
          "type": "uint256"
        }
      ],
      "stateMutability": "view",
      "type": "function"
    },
    {
      "inputs": [],
      "name": "depositMoney",
      "outputs": [],
      "stateMutability": "payable",
      "type": "function"
    },
    {
      "inputs": [],
      "name": "totalBankBalance",
      "outputs": [
        {
          "internalType": "uint256",
          "name": "",
          "type": "uint256"
        }
      ],
      "stateMutability": "view",
      "type": "function"
    },
    {
      "inputs": [
        {
          "internalType": "uint256",
          "name": "_amount",
          "type": "uint256"
        }
      ],
      "name": "withdrawMoney",
      "outputs": [],
      "stateMutability": "payable",
      "type": "function"
    }
  ],
  "bytecode": "0x608060405234801561001057600080fd5b50336000806101000a81548173ffffffffffffffffffffffffffffffffffffffff021916908373ffffffffffffffffffffffffffffffffffffffff160217905550610f62806100606000396000f3fe60806040526004361061007b5760003560e01c806337ebe47b1161004e57806337ebe47b1461010957806347fe202e146101465780635487692114610171578063e147aaa71461018d5761007b565b806316c05aa2146100805780631977e9381461008a5780631f12f6f0146100b557806327d35801146100de575b600080fd5b6100886101b8565b005b34801561009657600080fd5b5061009f610253565b6040516100ac91906105d7565b60405180910390f35b3480156100c157600080fd5b506100dc60048036038101906100d7919061074c565b6102ea565b005b3480156100ea57600080fd5b506100f361038b565b604051610100919061081d565b60405180910390f35b34801561011557600080fd5b50610130600480360381019061012b919061089d565b610419565b60405161013d91906105d7565b60405180910390f35b34801561015257600080fd5b5061015b610431565b60405161016891906105d7565b60405180910390f35b61018b600480360381019061018691906108f6565b610478565b005b34801561019957600080fd5b506101a261059a565b6040516101af9190610932565b60405180910390f35b600034036101fb576040517f08c379a00000000000000000000000000000000000000000000000000000000081526004016101f2906109bf565b60405180910390fd5b34600260003373ffffffffffffffffffffffffffffffffffffffff1673ffffffffffffffffffffffffffffffffffffffff168152602001908152602001600020600082825461024a9190610a0e565b92505081905550565b60008060009054906101000a900473ffffffffffffffffffffffffffffffffffffffff1673ffffffffffffffffffffffffffffffffffffffff163373ffffffffffffffffffffffffffffffffffffffff16146102e4576040517f08c379a00000000000000000000000000000000000000000000000000000000081526004016102db90610ad6565b60405180910390fd5b47905090565b60008054906101000a900473ffffffffffffffffffffffffffffffffffffffff1673ffffffffffffffffffffffffffffffffffffffff163373ffffffffffffffffffffffffffffffffffffffff1614610378576040517f08c379a000000000000000000000000000000000000000000000000000000000815260040161036f90610b68565b60405180910390fd5b80600190816103879190610d94565b5050565b6001805461039890610bb7565b80601f01602080910402602001604051908101604052809291908181526020018280546103c490610bb7565b80156104115780601f106103e657610100808354040283529160200191610411565b820191906000526020600020905b8154815290600101906020018083116103f457829003601f168201915b505050505081565b60026020528060005260406000206000915090505481565b6000600260003373ffffffffffffffffffffffffffffffffffffffff1673ffffffffffffffffffffffffffffffffffffffff16815260200190815260200160002054905090565b600260003373ffffffffffffffffffffffffffffffffffffffff1673ffffffffffffffffffffffffffffffffffffffff168152602001908152602001600020548111156104fa576040517f08c379a00000000000000000000000000000000000000000000000000000000081526004016104f190610ed8565b60405180910390fd5b80600260003373ffffffffffffffffffffffffffffffffffffffff1673ffffffffffffffffffffffffffffffffffffffff16815260200190815260200160002060008282546105499190610ef8565b925050819055503373ffffffffffffffffffffffffffffffffffffffff166108fc829081150290604051600060405180830381858888f19350505050158015610596573d6000803e3d6000fd5b5050565b60008054906101000a900473ffffffffffffffffffffffffffffffffffffffff1681565b6000819050919050565b6105d1816105be565b82525050565b60006020820190506105ec60008301846105c8565b92915050565b6000604051905090565b600080fd5b600080fd5b600080fd5b600080fd5b6000601f19601f8301169050919050565b7f4e487b7100000000000000000000000000000000000000000000000000000000600052604160045260246000fd5b61065982610610565b810181811067ffffffffffffffff8211171561067857610677610621565b5b80604052505050565b600061068b6105f2565b90506106978282610650565b919050565b600067ffffffffffffffff8211156106b7576106b6610621565b5b6106c082610610565b9050602081019050919050565b82818337600083830152505050565b60006106ef6106ea8461069c565b610681565b90508281526020810184848401111561070b5761070a61060b565b5b6107168482856106cd565b509392505050565b600082601f83011261073357610732610606565b5b81356107438482602086016106dc565b91505092915050565b600060208284031215610762576107616105fc565b5b600082013567ffffffffffffffff8111156107805761077f610601565b5b61078c8482850161071e565b91505092915050565b600081519050919050565b600082825260208201905092915050565b60005b838110156107cf5780820151818401526020810190506107b4565b838111156107de576000848401525b50505050565b60006107ef82610795565b6107f981856107a0565b93506108098185602086016107b1565b61081281610610565b840191505092915050565b6000602082019050818103600083015261083781846107e4565b905092915050565b600073ffffffffffffffffffffffffffffffffffffffff82169050919050565b600061086a8261083f565b9050919050565b61087a8161085f565b811461088557600080fd5b50565b60008135905061089781610871565b92915050565b6000602082840312156108b3576108b26105fc565b5b60006108c184828501610888565b91505092915050565b6108d3816105be565b81146108de57600080fd5b50565b6000813590506108f0816108ca565b92915050565b60006020828403121561090c5761090b6105fc565b5b600061091a848285016108e1565b91505092915050565b61092c8161085f565b82525050565b60006020820190506109476000830184610923565b92915050565b7f596f75206e65656420746f206465706f73697420736f6d6520616d6f756e742060008201527f6f66206d6f6e6579210000000000000000000000000000000000000000000000602082015250565b60006109a96029836107a0565b91506109b48261094d565b604082019050919050565b600060208201905081810360008301526109d88161099c565b9050919050565b7f4e487b7100000000000000000000000000000000000000000000000000000000600052601160045260246000fd5b6000610a19826105be565b9150610a24836105be565b9250827fffffffffffffffffffffffffffffffffffffffffffffffffffffffffffffffff03821115610a5957610a586109df565b5b828201905092915050565b7f596f75206d75737420626520746865206f776e6572206f66207468652062616e60008201527f6b20746f2073656520616c6c2062616c616e6365732e00000000000000000000602082015250565b6000610ac06036836107a0565b9150610acb82610a64565b604082019050919050565b60006020820190508181036000830152610aef81610ab3565b9050919050565b7f596f75206d75737420626520746865206f776e657220746f207365742074686560008201527f206e616d65206f66207468652062616e6b000000000000000000000000000000602082015250565b6000610b526031836107a0565b9150610b5d82610af6565b604082019050919050565b60006020820190508181036000830152610b8181610b45565b9050919050565b7f4e487b7100000000000000000000000000000000000000000000000000000000600052602260045260246000fd5b60006002820490506001821680610bcf57607f821691505b602082108103610be257610be1610b88565b5b50919050565b60008190508160005260206000209050919050565b60006020601f8301049050919050565b600082821b905092915050565b600060088302610c4a7fffffffffffffffffffffffffffffffffffffffffffffffffffffffffffffffff82610c0d565b610c548683610c0d565b95508019841693508086168417925050509392505050565b6000819050919050565b6000610c91610c8c610c87846105be565b610c6c565b6105be565b9050919050565b6000819050919050565b610cab83610c76565b610cbf610cb782610c98565b848454610c1a565b825550505050565b600090565b610cd4610cc7565b610cdf818484610ca2565b505050565b5b81811015610d0357610cf8600082610ccc565b600181019050610ce5565b5050565b601f821115610d4857610d1981610be8565b610d2284610bfd565b81016020851015610d31578190505b610d45610d3d85610bfd565b830182610ce4565b50505b505050565b600082821c905092915050565b6000610d6b60001984600802610d4d565b1980831691505092915050565b6000610d848383610d5a565b9150826002028217905092915050565b610d9d82610795565b67ffffffffffffffff811115610db657610db5610621565b5b610dc08254610bb7565b610dcb828285610d07565b600060209050601f831160018114610dfe5760008415610dec578287015190505b610df68582610d78565b865550610e5e565b601f198416610e0c86610be8565b60005b82811015610e3457848901518255600182019150602085019450602081019050610e0f565b86831015610e515784890151610e4d601f891682610d5a565b8355505b6001600288020188555050505b505050505050565b7f696e73756666696365696e742062616c616e636520696e2062616e6b2061636360008201527f6f756e7400000000000000000000000000000000000000000000000000000000602082015250565b6000610ec26024836107a0565b9150610ecd82610e66565b604082019050919050565b60006020820190508181036000830152610ef181610eb5565b9050919050565b6000610f03826105be565b9150610f0e836105be565b925082821015610f2157610f206109df565b5b82820390509291505056fea264697066735822122050185385f53e755990fee5b053e4f9d0831f00573912569348f5ffb284c2cc3d64736f6c634300080f0033",
  "linkReferences": {},
  "deployedLinkReferences": {}
}