{
  "_format": "hh-sol-artifact-1",
  "contractName": "BankDapp",
  "sourceName": "contracts/BankDapp.sol",
  "abi": [
    {
      "inputs": [],
      "stateMutability": "nonpayable",
      "type": "constructor"
    },
    {
      "inputs": [],
      "name": "bankName",
      "outputs": [
        {
          "internalType": "string",
          "name": "",
          "type": "string"
        }
      ],
      "stateMutability": "view",
      "type": "function"
    },
    {
      "inputs": [],
      "name": "bankOwner",
      "outputs": [
        {
          "internalType": "address",
          "name": "",
          "type": "address"
        }
      ],
      "stateMutability": "view",
      "type": "function"
    },
    {
      "inputs": [
        {
          "internalType": "string",
          "name": "_name",
          "type": "string"
        }
      ],
      "name": "changeBankName",
      "outputs": [],
      "stateMutability": "nonpayable",
      "type": "function"
    },
    {
      "inputs": [],
      "name": "checkCustomerBalance",
      "outputs": [
        {
          "internalType": "uint256",
          "name": "",
          "type": "uint256"
        }
      ],
      "stateMutability": "view",
      "type": "function"
    },
    {
      "inputs": [
        {
          "internalType": "address",
          "name": "",
          "type": "address"
        }
      ],
      "name": "customerBalance",
      "outputs": [
        {
          "internalType": "uint256",
          "name": "",
          "type": "uint256"
        }
      ],
      "stateMutability": "view",
      "type": "function"
    },
    {
      "inputs": [],
      "name": "depositMoney",
      "outputs": [],
      "stateMutability": "payable",
      "type": "function"
    },
    {
      "inputs": [],
      "name": "totalBankBalance",
      "outputs": [
        {
          "internalType": "uint256",
          "name": "",
          "type": "uint256"
        }
      ],
      "stateMutability": "view",
      "type": "function"
    },
    {
      "inputs": [
        {
          "internalType": "uint256",
          "name": "_amount",
          "type": "uint256"
        }
      ],
      "name": "withdrawMoney",
      "outputs": [],
      "stateMutability": "payable",
      "type": "function"
    }
  ],
  "bytecode": "0x608060405234801561001057600080fd5b50336000806101000a81548173ffffffffffffffffffffffffffffffffffffffff021916908373ffffffffffffffffffffffffffffffffffffffff160217905550610d90806100606000396000f3fe60806040526004361061007b5760003560e01c806337ebe47b1161004e57806337ebe47b1461010957806347fe202e146101465780635487692114610171578063e147aaa71461018d5761007b565b806316c05aa2146100805780631977e9381461008a5780631f12f6f0146100b557806327d35801146100de575b600080fd5b6100886101b8565b005b34801561009657600080fd5b5061009f610254565b6040516100ac9190610946565b60405180910390f35b3480156100c157600080fd5b506100dc60048036038101906100d79190610730565b6102eb565b005b3480156100ea57600080fd5b506100f3610393565b60405161010091906108a4565b60405180910390f35b34801561011557600080fd5b50610130600480360381019061012b9190610703565b610421565b60405161013d9190610946565b60405180910390f35b34801561015257600080fd5b5061015b610439565b6040516101689190610946565b60405180910390f35b61018b60048036038101906101869190610779565b610480565b005b34801561019957600080fd5b506101a26105a2565b6040516101af9190610889565b60405180910390f35b60003414156101fc576040517f08c379a00000000000000000000000000000000000000000000000000000000081526004016101f3906108c6565b60405180910390fd5b34600260003373ffffffffffffffffffffffffffffffffffffffff1673ffffffffffffffffffffffffffffffffffffffff168152602001908152602001600020600082825461024b91906109d3565b92505081905550565b60008060009054906101000a900473ffffffffffffffffffffffffffffffffffffffff1673ffffffffffffffffffffffffffffffffffffffff163373ffffffffffffffffffffffffffffffffffffffff16146102e5576040517f08c379a00000000000000000000000000000000000000000000000000000000081526004016102dc90610926565b60405180910390fd5b47905090565b60008054906101000a900473ffffffffffffffffffffffffffffffffffffffff1673ffffffffffffffffffffffffffffffffffffffff163373ffffffffffffffffffffffffffffffffffffffff1614610379576040517f08c379a000000000000000000000000000000000000000000000000000000000815260040161037090610906565b60405180910390fd5b806001908051906020019061038f9291906105c6565b5050565b600180546103a090610adb565b80601f01602080910402602001604051908101604052809291908181526020018280546103cc90610adb565b80156104195780601f106103ee57610100808354040283529160200191610419565b820191906000526020600020905b8154815290600101906020018083116103fc57829003601f168201915b505050505081565b60026020528060005260406000206000915090505481565b6000600260003373ffffffffffffffffffffffffffffffffffffffff1673ffffffffffffffffffffffffffffffffffffffff16815260200190815260200160002054905090565b600260003373ffffffffffffffffffffffffffffffffffffffff1673ffffffffffffffffffffffffffffffffffffffff16815260200190815260200160002054811115610502576040517f08c379a00000000000000000000000000000000000000000000000000000000081526004016104f9906108e6565b60405180910390fd5b80600260003373ffffffffffffffffffffffffffffffffffffffff1673ffffffffffffffffffffffffffffffffffffffff16815260200190815260200160002060008282546105519190610a29565b925050819055503373ffffffffffffffffffffffffffffffffffffffff166108fc829081150290604051600060405180830381858888f1935050505015801561059e573d6000803e3d6000fd5b5050565b60008054906101000a900473ffffffffffffffffffffffffffffffffffffffff1681565b8280546105d290610adb565b90600052602060002090601f0160209004810192826105f4576000855561063b565b82601f1061060d57805160ff191683800117855561063b565b8280016001018555821561063b579182015b8281111561063a57825182559160200191906001019061061f565b5b509050610648919061064c565b5090565b5b8082111561066557600081600090555060010161064d565b5090565b600061067c61067784610986565b610961565b90508281526020810184848401111561069857610697610bd0565b5b6106a3848285610a99565b509392505050565b6000813590506106ba81610d2c565b92915050565b600082601f8301126106d5576106d4610bcb565b5b81356106e5848260208601610669565b91505092915050565b6000813590506106fd81610d43565b92915050565b60006020828403121561071957610718610bda565b5b6000610727848285016106ab565b91505092915050565b60006020828403121561074657610745610bda565b5b600082013567ffffffffffffffff81111561076457610763610bd5565b5b610770848285016106c0565b91505092915050565b60006020828403121561078f5761078e610bda565b5b600061079d848285016106ee565b91505092915050565b6107af81610a5d565b82525050565b60006107c0826109b7565b6107ca81856109c2565b93506107da818560208601610aa8565b6107e381610bdf565b840191505092915050565b60006107fb6029836109c2565b915061080682610bf0565b604082019050919050565b600061081e6024836109c2565b915061082982610c3f565b604082019050919050565b60006108416031836109c2565b915061084c82610c8e565b604082019050919050565b60006108646036836109c2565b915061086f82610cdd565b604082019050919050565b61088381610a8f565b82525050565b600060208201905061089e60008301846107a6565b92915050565b600060208201905081810360008301526108be81846107b5565b905092915050565b600060208201905081810360008301526108df816107ee565b9050919050565b600060208201905081810360008301526108ff81610811565b9050919050565b6000602082019050818103600083015261091f81610834565b9050919050565b6000602082019050818103600083015261093f81610857565b9050919050565b600060208201905061095b600083018461087a565b92915050565b600061096b61097c565b90506109778282610b0d565b919050565b6000604051905090565b600067ffffffffffffffff8211156109a1576109a0610b9c565b5b6109aa82610bdf565b9050602081019050919050565b600081519050919050565b600082825260208201905092915050565b60006109de82610a8f565b91506109e983610a8f565b9250827fffffffffffffffffffffffffffffffffffffffffffffffffffffffffffffffff03821115610a1e57610a1d610b3e565b5b828201905092915050565b6000610a3482610a8f565b9150610a3f83610a8f565b925082821015610a5257610a51610b3e565b5b828203905092915050565b6000610a6882610a6f565b9050919050565b600073ffffffffffffffffffffffffffffffffffffffff82169050919050565b6000819050919050565b82818337600083830152505050565b60005b83811015610ac6578082015181840152602081019050610aab565b83811115610ad5576000848401525b50505050565b60006002820490506001821680610af357607f821691505b60208210811415610b0757610b06610b6d565b5b50919050565b610b1682610bdf565b810181811067ffffffffffffffff82111715610b3557610b34610b9c565b5b80604052505050565b7f4e487b7100000000000000000000000000000000000000000000000000000000600052601160045260246000fd5b7f4e487b7100000000000000000000000000000000000000000000000000000000600052602260045260246000fd5b7f4e487b7100000000000000000000000000000000000000000000000000000000600052604160045260246000fd5b600080fd5b600080fd5b600080fd5b600080fd5b6000601f19601f8301169050919050565b7f596f75206e65656420746f206465706f73697420736f6d6520616d6f756e742060008201527f6f66206d6f6e6579210000000000000000000000000000000000000000000000602082015250565b7f696e73756666696365696e742062616c616e636520696e2062616e6b2061636360008201527f6f756e7400000000000000000000000000000000000000000000000000000000602082015250565b7f596f75206d75737420626520746865206f776e657220746f207365742074686560008201527f206e616d65206f66207468652062616e6b000000000000000000000000000000602082015250565b7f596f75206d75737420626520746865206f776e6572206f66207468652062616e60008201527f6b20746f2073656520616c6c2062616c616e6365732e00000000000000000000602082015250565b610d3581610a5d565b8114610d4057600080fd5b50565b610d4c81610a8f565b8114610d5757600080fd5b5056fea2646970667358221220926d52385fa829fbb8a5ecf1b8df6d9942dfcd6cb319d2974542768218d0fdb564736f6c63430008060033",
  "linkReferences": {},
  "deployedLinkReferences": {}
}