{
  "_format": "hh-sol-artifact-1",
  "contractName": "BankDapp",
  "sourceName": "contracts/BankDapp.sol",
  "abi": [
    {
      "inputs": [],
      "stateMutability": "nonpayable",
      "type": "constructor"
    },
    {
      "inputs": [],
      "name": "bankName",
      "outputs": [
        {
          "internalType": "string",
          "name": "",
          "type": "string"
        }
      ],
      "stateMutability": "view",
      "type": "function"
    },
    {
      "inputs": [],
      "name": "bankOwner",
      "outputs": [
        {
          "internalType": "address",
          "name": "",
          "type": "address"
        }
      ],
      "stateMutability": "view",
      "type": "function"
    },
    {
      "inputs": [
        {
          "internalType": "string",
          "name": "_name",
          "type": "string"
        }
      ],
      "name": "changeBankName",
      "outputs": [],
      "stateMutability": "nonpayable",
      "type": "function"
    },
    {
      "inputs": [],
      "name": "checkCustomerBalance",
      "outputs": [
        {
          "internalType": "uint256",
          "name": "",
          "type": "uint256"
        }
      ],
      "stateMutability": "view",
      "type": "function"
    },
    {
      "inputs": [
        {
          "internalType": "address",
          "name": "",
          "type": "address"
        }
      ],
      "name": "customerBalance",
      "outputs": [
        {
          "internalType": "uint256",
          "name": "",
          "type": "uint256"
        }
      ],
      "stateMutability": "view",
      "type": "function"
    },
    {
      "inputs": [],
      "name": "depositMoney",
      "outputs": [],
      "stateMutability": "payable",
      "type": "function"
    },
    {
      "inputs": [],
      "name": "totalBankBalance",
      "outputs": [
        {
          "internalType": "uint256",
          "name": "",
          "type": "uint256"
        }
      ],
      "stateMutability": "view",
      "type": "function"
    },
    {
      "inputs": [
        {
          "internalType": "uint256",
          "name": "_amount",
          "type": "uint256"
        }
      ],
      "name": "withdraw",
      "outputs": [],
      "stateMutability": "payable",
      "type": "function"
    }
  ],
  "bytecode": "0x608060405234801561001057600080fd5b50336000806101000a81548173ffffffffffffffffffffffffffffffffffffffff021916908373ffffffffffffffffffffffffffffffffffffffff160217905550611367806100606000396000f3fe60806040526004361061007b5760003560e01c80632e1a7d4d1161004e5780632e1a7d4d1461010957806337ebe47b1461012557806347fe202e14610162578063e147aaa71461018d5761007b565b806316c05aa2146100805780631977e9381461008a5780631f12f6f0146100b557806327d35801146100de575b600080fd5b6100886101b8565b005b34801561009657600080fd5b5061009f610253565b6040516100ac9190610939565b60405180910390f35b3480156100c157600080fd5b506100dc60048036038101906100d79190610aae565b6102ea565b005b3480156100ea57600080fd5b506100f361038b565b6040516101009190610b7f565b60405180910390f35b610123600480360381019061011e9190610bcd565b610419565b005b34801561013157600080fd5b5061014c60048036038101906101479190610c58565b61069d565b6040516101599190610939565b60405180910390f35b34801561016e57600080fd5b506101776106b5565b6040516101849190610939565b60405180910390f35b34801561019957600080fd5b506101a26106fc565b6040516101af9190610c94565b60405180910390f35b600034036101fb576040517f08c379a00000000000000000000000000000000000000000000000000000000081526004016101f290610d21565b60405180910390fd5b34600260003373ffffffffffffffffffffffffffffffffffffffff1673ffffffffffffffffffffffffffffffffffffffff168152602001908152602001600020600082825461024a9190610d70565b92505081905550565b60008060009054906101000a900473ffffffffffffffffffffffffffffffffffffffff1673ffffffffffffffffffffffffffffffffffffffff163373ffffffffffffffffffffffffffffffffffffffff16146102e4576040517f08c379a00000000000000000000000000000000000000000000000000000000081526004016102db90610e38565b60405180910390fd5b47905090565b60008054906101000a900473ffffffffffffffffffffffffffffffffffffffff1673ffffffffffffffffffffffffffffffffffffffff163373ffffffffffffffffffffffffffffffffffffffff1614610378576040517f08c379a000000000000000000000000000000000000000000000000000000000815260040161036f90610eca565b60405180910390fd5b806001908161038791906110f6565b5050565b6001805461039890610f19565b80601f01602080910402602001604051908101604052809291908181526020018280546103c490610f19565b80156104115780601f106103e657610100808354040283529160200191610411565b820191906000526020600020905b8154815290600101906020018083116103f457829003601f168201915b505050505081565b600260003373ffffffffffffffffffffffffffffffffffffffff1673ffffffffffffffffffffffffffffffffffffffff1681526020019081526020016000205481116105a75760003373ffffffffffffffffffffffffffffffffffffffff1682604051610485906111f9565b60006040518083038185875af1925050503d80600081146104c2576040519150601f19603f3d011682016040523d82523d6000602084013e6104c7565b606091505b5050905081600260003373ffffffffffffffffffffffffffffffffffffffff1673ffffffffffffffffffffffffffffffffffffffff168152602001908152602001600020600082825461051a919061120e565b9250508190555080610561576040517f08c379a00000000000000000000000000000000000000000000000000000000081526004016105589061128e565b60405180910390fd5b6105a1336040518060400160405280600a81526020017f207769746864726577200000000000000000000000000000000000000000000081525084610720565b5061069a565b6105e56040518060400160405280601581526020017f496e73756666696369656e742042616c616e63652000000000000000000000008152506107bf565b6106996040518060400160405280601181526020017f43757272656e742042616c616e63653a20000000000000000000000000000000815250600260003373ffffffffffffffffffffffffffffffffffffffff1673ffffffffffffffffffffffffffffffffffffffff168152602001908152602001600020546040518060400160405280600181526020017f0a00000000000000000000000000000000000000000000000000000000000000815250610858565b5b50565b60026020528060005260406000206000915090505481565b6000600260003373ffffffffffffffffffffffffffffffffffffffff1673ffffffffffffffffffffffffffffffffffffffff16815260200190815260200160002054905090565b60008054906101000a900473ffffffffffffffffffffffffffffffffffffffff1681565b6107ba838383604051602401610738939291906112ae565b6040516020818303038152906040527f1cdaf28a000000000000000000000000000000000000000000000000000000007bffffffffffffffffffffffffffffffffffffffffffffffffffffffff19166020820180517bffffffffffffffffffffffffffffffffffffffffffffffffffffffff83818316178352505050506108f7565b505050565b610855816040516024016107d39190610b7f565b6040516020818303038152906040527f41304fac000000000000000000000000000000000000000000000000000000007bffffffffffffffffffffffffffffffffffffffffffffffffffffffff19166020820180517bffffffffffffffffffffffffffffffffffffffffffffffffffffffff83818316178352505050506108f7565b50565b6108f2838383604051602401610870939291906112ec565b6040516020818303038152906040527fa3f5c739000000000000000000000000000000000000000000000000000000007bffffffffffffffffffffffffffffffffffffffffffffffffffffffff19166020820180517bffffffffffffffffffffffffffffffffffffffffffffffffffffffff83818316178352505050506108f7565b505050565b60008151905060006a636f6e736f6c652e6c6f679050602083016000808483855afa5050505050565b6000819050919050565b61093381610920565b82525050565b600060208201905061094e600083018461092a565b92915050565b6000604051905090565b600080fd5b600080fd5b600080fd5b600080fd5b6000601f19601f8301169050919050565b7f4e487b7100000000000000000000000000000000000000000000000000000000600052604160045260246000fd5b6109bb82610972565b810181811067ffffffffffffffff821117156109da576109d9610983565b5b80604052505050565b60006109ed610954565b90506109f982826109b2565b919050565b600067ffffffffffffffff821115610a1957610a18610983565b5b610a2282610972565b9050602081019050919050565b82818337600083830152505050565b6000610a51610a4c846109fe565b6109e3565b905082815260208101848484011115610a6d57610a6c61096d565b5b610a78848285610a2f565b509392505050565b600082601f830112610a9557610a94610968565b5b8135610aa5848260208601610a3e565b91505092915050565b600060208284031215610ac457610ac361095e565b5b600082013567ffffffffffffffff811115610ae257610ae1610963565b5b610aee84828501610a80565b91505092915050565b600081519050919050565b600082825260208201905092915050565b60005b83811015610b31578082015181840152602081019050610b16565b83811115610b40576000848401525b50505050565b6000610b5182610af7565b610b5b8185610b02565b9350610b6b818560208601610b13565b610b7481610972565b840191505092915050565b60006020820190508181036000830152610b998184610b46565b905092915050565b610baa81610920565b8114610bb557600080fd5b50565b600081359050610bc781610ba1565b92915050565b600060208284031215610be357610be261095e565b5b6000610bf184828501610bb8565b91505092915050565b600073ffffffffffffffffffffffffffffffffffffffff82169050919050565b6000610c2582610bfa565b9050919050565b610c3581610c1a565b8114610c4057600080fd5b50565b600081359050610c5281610c2c565b92915050565b600060208284031215610c6e57610c6d61095e565b5b6000610c7c84828501610c43565b91505092915050565b610c8e81610c1a565b82525050565b6000602082019050610ca96000830184610c85565b92915050565b7f596f75206e65656420746f206465706f73697420736f6d6520616d6f756e742060008201527f6f66206d6f6e6579210000000000000000000000000000000000000000000000602082015250565b6000610d0b602983610b02565b9150610d1682610caf565b604082019050919050565b60006020820190508181036000830152610d3a81610cfe565b9050919050565b7f4e487b7100000000000000000000000000000000000000000000000000000000600052601160045260246000fd5b6000610d7b82610920565b9150610d8683610920565b9250827fffffffffffffffffffffffffffffffffffffffffffffffffffffffffffffffff03821115610dbb57610dba610d41565b5b828201905092915050565b7f596f75206d75737420626520746865206f776e6572206f66207468652062616e60008201527f6b20746f2073656520616c6c2062616c616e6365732e00000000000000000000602082015250565b6000610e22603683610b02565b9150610e2d82610dc6565b604082019050919050565b60006020820190508181036000830152610e5181610e15565b9050919050565b7f596f75206d75737420626520746865206f776e657220746f207365742074686560008201527f206e616d65206f66207468652062616e6b000000000000000000000000000000602082015250565b6000610eb4603183610b02565b9150610ebf82610e58565b604082019050919050565b60006020820190508181036000830152610ee381610ea7565b9050919050565b7f4e487b7100000000000000000000000000000000000000000000000000000000600052602260045260246000fd5b60006002820490506001821680610f3157607f821691505b602082108103610f4457610f43610eea565b5b50919050565b60008190508160005260206000209050919050565b60006020601f8301049050919050565b600082821b905092915050565b600060088302610fac7fffffffffffffffffffffffffffffffffffffffffffffffffffffffffffffffff82610f6f565b610fb68683610f6f565b95508019841693508086168417925050509392505050565b6000819050919050565b6000610ff3610fee610fe984610920565b610fce565b610920565b9050919050565b6000819050919050565b61100d83610fd8565b61102161101982610ffa565b848454610f7c565b825550505050565b600090565b611036611029565b611041818484611004565b505050565b5b818110156110655761105a60008261102e565b600181019050611047565b5050565b601f8211156110aa5761107b81610f4a565b61108484610f5f565b81016020851015611093578190505b6110a761109f85610f5f565b830182611046565b50505b505050565b600082821c905092915050565b60006110cd600019846008026110af565b1980831691505092915050565b60006110e683836110bc565b9150826002028217905092915050565b6110ff82610af7565b67ffffffffffffffff81111561111857611117610983565b5b6111228254610f19565b61112d828285611069565b600060209050601f831160018114611160576000841561114e578287015190505b61115885826110da565b8655506111c0565b601f19841661116e86610f4a565b60005b8281101561119657848901518255600182019150602085019450602081019050611171565b868310156111b357848901516111af601f8916826110bc565b8355505b6001600288020188555050505b505050505050565b600081905092915050565b50565b60006111e36000836111c8565b91506111ee826111d3565b600082019050919050565b6000611204826111d6565b9150819050919050565b600061121982610920565b915061122483610920565b92508282101561123757611236610d41565b5b828203905092915050565b7f4661696c656420746f207769746864726177206d6f6e65790000000000000000600082015250565b6000611278601883610b02565b915061128382611242565b602082019050919050565b600060208201905081810360008301526112a78161126b565b9050919050565b60006060820190506112c36000830186610c85565b81810360208301526112d58185610b46565b90506112e4604083018461092a565b949350505050565b600060608201905081810360008301526113068186610b46565b9050611315602083018561092a565b81810360408301526113278184610b46565b905094935050505056fea264697066735822122094ad0cff8879b782bd4cf1127e73e3dae32d6fec3df8639967d27b7d09fa328964736f6c634300080f0033",
  "linkReferences": {},
  "deployedLinkReferences": {}
}